:020000040800F2
:10000000000001203D0300088D0300088D03000857
:100010008D0300088D0300088D0300080000000018
:100020000000000000000000000000008D03000838
:100030008D030008000000008D0300088D030008F8
:100040008D0300088D0300088D0300088D03000850
:100050008D0300088D0300088D0300088D03000840
:100060008D0300088D0300088D0300088D03000830
:100070008D0300088D0300088D0300088D03000820
:100080008D0300088D0300088D03000800000000A8
:100090000000000000000000000000008D030008C8
:1000A0008D0300088D0300088D0300088D030008F0
:1000B0008D0300088D0300088D0300088D030008E0
:1000C0008D0300088D0300088D0300088D030008D0
:1000D0008D0300088D0300088D0300080000000058
:1000E0008D0300088D0300088D0300080000000048
:1000F0000000000000000000000000008D03000868
:10010000000000008D0300088D0300088D03000827
:1001100000000000000000000000000000000000DF
:100120008D0300088D0300088D0300088D0300086F
:100130008D03000800000000000000000000000027
:100140000000000000000000000000008D03000817
:100150008D0300088D0300088D0300088D0300083F
:100160008D0300088D03000800000000000000005F
:10017000000000000000000000000000000000007F
:10018000000000008D0300080000000000000000D7
:040190008D030008D3
:1001940010B5054C237833B9044B13B10448AFF3BD
:1001A40000800123237010BD000000200000000027
:1001B4008012000808B5034B1BB103490348AFF391
:1001C400008008BD00000000040000208012000828
:1001D400F0B587B006AF294B02221A70274B0022D4
:1001E4005A70264B00229A70244B02225A71234BD8
:1001F40001225A74214B0222DA70204B02221A7116
:100204001E4B01225A751D4B0122DA741B4B03222B
:100214009A711A4B03229A74184B00225A72174B84
:1002240000229A72154B164A5A62144B154ADA6127
:10023400124B01221A75114B64221A830F4E6D461C
:1002440006F110040FCC0FC594E8030085E8030001
:1002540096E80F0000F09AF8084E6D4606F1100477
:100264000FCC0FC594E8030085E8030096E80F005F
:1002740000F0B4F800BF0437BD46F0BD1C000020F8
:10028400D401002044000020F0B589B006AF41201D
:1002940000F086FE002301220021412000F0A2FE8E
:1002A40001237B6012E07B68642202FB03F27B681B
:1002B400013B1146144A42F823107B68013B134A60
:1002C400002142F823107B6801337B607B68642B38
:1002D400E9DDFFF77DFF0E4E6D4606F110040FCCED
:1002E4000FC594E8030085E8030096E80F0000F0CA
:1002F4000BFE064B1B68002BFBD001220021412082
:1003040000F020FFF5E700BFD401002044000020E6
:100314001C00002080B400AF064BD3F88830054A97
:1003240043F47003C2F8883000BFBD465DF8047B17
:10033400704700BF00ED00E0DFF834D00D480E49EF
:100344000E4A002302E0D458C4500433C4188C422B
:10035400F9D30B4A0B4C002301E013600432A24290
:10036400FBD3FFF7D7FF00F065FFFFF78DFF704762
:10037400000001200000002000000020A01200085E
:100384000000002064030020FEE7000084B080B475
:1003940083B000AF07F1100C8CE80F003B7CFB71BD
:1003A400FB79012B02D0022B07D00DE00A4B1B6B0B
:1003B400094A43F40013136306E0074B1B6B064A18
:1003C40043F48003136300BF00BF0C37BD465DF8E0
:1003D400047B04B0704700BF0038024084B080B48E
:1003E40087B000AF07F1200C8CE80F0097F821309C
:1003F400072B3FD801A252F823F000BF21040008C4
:10040400370400084D0400086304000821040008B0
:10041400370400084D0400086304000805237B61C9
:1004240004233B610323FB600223BB6000237B6046
:1004340020E00B237B610A233B610923FB60082333
:10044400BB6006237B6015E015237B6114233B61AD
:100454001323FB601223BB6010237B600AE01B2381
:100464007B611A233B611923FB601823BB601623AD
:100474007B6000BF97F82030012B04D0022B00F0E2
:10048400978200F036BD97F821301A4613465B0078
:100494001344DB0010339B0003F1804303F518334E
:1004A4001A6897F8213019460B465B000B44DB00B1
:1004B40010339B0003F1804303F5183322F001024B
:1004C4001A6097F82130032B04D8AB4BAA4A1B6857
:1004D400136003E0A94BA94A1B68136097F8213005
:1004E4001A4613465B001344DB0010339B0003F1F0
:1004F400804303F51833196897F822305A0697F8A1
:100504002130184603465B000344DB0010339B0094
:1005140003F1804303F518330A431A6097F8213036
:100524001A4613465B001344DB0014339B0003F1AB
:10053400804303F518331A683B8F184697F8213027
:1005440019460B465B000B44DB0014339B0003F19C
:10055400804303F5183302431A6097F821300133BE
:100564001A4613465B0013445B0103F1804303F511
:1005740018331A687B6C184697F8213001331946F2
:100584000B465B000B445B0103F1804303F5183316
:1005940002431A6097F821301A4613465B0013444D
:1005A400DB001C339B0003F1804303F518331A6806
:1005B400FB6B184697F8213019460B465B000B4439
:1005C400DB001C339B0003F1804303F51833024323
:1005D4001A6097F821301A4613465B001344DB0077
:1005E40010339B0003F1804303F51833196897F81F
:1005F40026301A0497F82130184603465B0003445A
:10060400DB0010339B0003F1804303F518330A43E6
:100614001A6097F82530022B04D097F83130012B5B
:1006240000F0608497F8213001331A461346DB004A
:1006340013441B0103F1804303F51833196897F839
:1006440031309A0097F82130013318460346DB0015
:1006540003441B0103F1804303F518330A431A6072
:1006640097F821301A4613465B001344DB0010331D
:100674009B0003F1804303F51833196897F825307C
:100684009A0197F82130184603465B000344DB00C7
:1006940010339B0003F1804303F518330A431A60B7
:1006A40097F821301A4613465B001344DB001033DD
:1006B4009B0003F1804303F51833196897F8283039
:1006C4005A0197F82130184603465B000344DB00C7
:1006D40010339B0003F1804303F518330A431A6077
:1006E40097F83130002B4BD197F8232097F824301A
:1006F4009A4240F0F98397F821301A4613465B007A
:100704001344DB0010339B0003F1804303F51833DB
:10071400196897F823305A0397F82130184603468E
:100724005B000344DB0010339B0003F1804303F5BB
:1007340018330A431A6097F821301A4613465B00AF
:100744001344DB0010339B0003F1804303F518339B
:10075400196897F82430DA0297F8213018460346CE
:100764005B000344DB0010339B0003F1804303F57B
:1007740018330A431A6061E00060024010600240CE
:1007840097F821301A4613465B001344DB001033FC
:100794009B0003F1804303F51833196897F823305D
:1007A4005A0397F82130184603465B000344DB00E4
:1007B40010339B0003F1804303F518330A431A6096
:1007C40097F821301A4613465B001344DB001033BC
:1007D4009B0003F1804303F51833196897F824301C
:1007E400DA0297F82130184603465B000344DB0025
:1007F40010339B0003F1804303F518330A431A6056
:1008040097F8213001331A461346DB0013441B01C9
:1008140003F1804303F518331A6897F83230184609
:1008240097F82130013319460B46DB000B441B01BA
:1008340003F1804303F5183302431A6097F821301B
:100844001A4613465B001344DB0010339B0003F18C
:10085400804303F51833196897F835309A0297F8EE
:100864002130184603465B000344DB0010339B0031
:1008740003F1804303F518330A431A6097F82130D3
:100884001A4613465B001344DB0010339B0003F14C
:10089400804303F51833196897F833305A0297F8F0
:1008A4002130184603465B000344DB0010339B00F1
:1008B40003F1804303F518330A431A6097F8213093
:1008C4001A4613465B001344DB0010339B0003F10C
:1008D400804303F51833196897F83430DA0397F82E
:1008E4002130184603465B000344DB0010339B00B1
:1008F40003F1804303F518330A431A6097F8213053
:100904001A4613465B001344DB0010339B0003F1CB
:10091400804303F51833196897F82930DA0597F8F6
:100924002130184603465B000344DB0010339B0070
:1009340003F1804303F518330A431A6097F8213012
:100944001A4613465B001344DB0010339B0003F18B
:10095400804303F51833196897F82A305A0597F835
:100964002130184603465B000344DB0010339B0030
:1009740003F1804303F518330A431A6097F82130D2
:10098400032B0AD1C74B1B6801217A6901FA02F2D1
:100994001146C44A0B431360ABE2C34B1B680121ED
:1009A4007A6901FA02F21146BF4A0B431360A0E2CE
:1009B40097F821301A4613465B001344DB001033CA
:1009C4009B0003F1804303F518331A6897F821302C
:1009D40019460B465B000B44DB0010339B0003F10C
:1009E400804303F5183322F001021A6097F821308E
:1009F400032B04D8AD4BAD4A1B68136003E0AC4B2A
:100A0400AB4A1B68136097F821301A4613465B0003
:100A14001344DB0010339B0003F1804303F51933C7
:100A2400196897F822305A0697F821301846034679
:100A34005B000344DB0010339B0003F1804303F5A8
:100A440019330A431A6097F821301A4613465B009B
:100A54001344DB0014339B0003F1804303F5193383
:100A64001A683B8F184697F8213019460B465B00ED
:100A74000B44DB0014339B0003F1804303F519336B
:100A840002431A6097F8213001331A4613465B007B
:100A940013445B0103F1804303F519331A687B6C3B
:100AA400184697F82130013319460B465B000B4476
:100AB4005B0103F1804303F5193302431A6097F88D
:100AC40021301A4613465B001344DB001C339B00A1
:100AD40003F1804303F519331A68FB6B184697F842
:100AE400213019460B465B000B44DB001C339B0092
:100AF40003F1804303F5193302431A6097F8213058
:100B04001A4613465B001344DB0010339B0003F1C9
:100B1400804303F51933196897F826301A0497F8B7
:100B24002130184603465B000344DB0010339B006E
:100B340003F1804303F519330A431A6097F825300B
:100B4400022B04D097F83130012B00F0CF8197F8B5
:100B5400213001331A461346DB0013441B0103F111
:100B6400804303F51933196897F831309A0097F8E0
:100B74002130013318460346DB0003441B0103F113
:100B8400804303F519330A431A6097F821301A4653
:100B940013465B001344DB0010339B0003F18043D6
:100BA40003F51933196897F825309A0197F821301D
:100BB400184603465B000344DB0010339B0003F13B
:100BC400804303F519330A431A6097F821301A4613
:100BD40013465B001344DB0010339B0003F1804396
:100BE40003F51933196897F828305A0197F821301A
:100BF400184603465B000344DB0010339B0003F1FB
:100C0400804303F519330A431A6097F83130002BF7
:100C140050D197F8232097F824309A4240F0688105
:100C240097F821301A4613465B001344DB00103357
:100C34009B0003F1804303F51933196897F82330B7
:100C44005A0397F82130184603465B000344DB003F
:100C540010339B0003F1804303F519330A431A60F0
:100C640097F821301A4613465B001344DB00103317
:100C74009B0003F1804303F51933196897F8243076
:100C8400DA0297F82130184603465B000344DB0080
:100C940010339B0003F1804303F519330A431A60B0
:100CA40066E000BF00600240106002400064024041
:100CB4001064024097F821301A4613465B0013442F
:100CC400DB0010339B0003F1804303F519331968EB
:100CD40097F823305A0397F82130184603465B00EF
:100CE4000344DB0010339B0003F1804303F5193305
:100CF4000A431A6097F821301A4613465B001344DE
:100D0400DB0010339B0003F1804303F519331968AA
:100D140097F82430DA0297F82130184603465B002E
:100D24000344DB0010339B0003F1804303F51933C4
:100D34000A431A6097F8213001331A461346DB0040
:100D440013441B0103F1804303F519331A6897F820
:100D54003230184697F82130013319460B46DB0030
:100D64000B441B0103F1804303F5193302431A605A
:100D740097F821301A4613465B001344DB00103306
:100D84009B0003F1804303F51933196897F8353054
:100D94009A0297F82130184603465B000344DB00AF
:100DA40010339B0003F1804303F519330A431A609F
:100DB40097F821301A4613465B001344DB001033C6
:100DC4009B0003F1804303F51933196897F8333016
:100DD4005A0297F82130184603465B000344DB00AF
:100DE40010339B0003F1804303F519330A431A605F
:100DF40097F821301A4613465B001344DB00103386
:100E04009B0003F1804303F51933196897F83430D4
:100E1400DA0397F82130184603465B000344DB00ED
:100E240010339B0003F1804303F519330A431A601E
:100E340097F821301A4613465B001344DB00103345
:100E44009B0003F1804303F51933196897F829309F
:100E5400DA0597F82130184603465B000344DB00AB
:100E640010339B0003F1804303F519330A431A60DE
:100E740097F821301A4613465B001344DB00103305
:100E84009B0003F1804303F51933196897F82A305E
:100E94005A0597F82130184603465B000344DB00EB
:100EA40010339B0003F1804303F519330A431A609E
:100EB40097F82130032B0AD1114B1B6801217A6961
:100EC40001FA02F211460E4A0B43136011E00D4B76
:100ED4001B6801217A6901FA02F21146094A0B439F
:100EE400136006E000BF04E000BF02E000BF00E0C2
:100EF40000BF1C37BD465DF8047B04B0704700BFDB
:100F0400006402401064024084B090B400AF07F162
:100F1400080484E80F003B7A012B02D0022B1DD079
:100F240039E07B7A1A4613465B001344DB00103326
:100F34009B0003F1804303F518331A687B7A194642
:100F44000B465B000B44DB0010339B0003F1804332
:100F540003F5183342F001021A601CE07B7A1A464A
:100F640013465B001344DB0010339B0003F1804302
:100F740003F519331A687B7A19460B465B000B4458
:100F8400DB0010339B0003F1804303F5193342F077
:100F940001021A6000BF00BFBD4690BC04B0704798
:100FA40080B483B000AF0346FB71FB79412B02D0C0
:100FB400422B07D00DE00A4B1B6B094A43F0010397
:100FC400136306E0064B1B6B054A43F002031363ED
:100FD40000BF00BF0C37BD465DF8047B704700BFFF
:100FE4000038024090B482B000AF0446084611466F
:100FF4001A462346FB710346BB710B467B711346AD
:101004003B71FB79412B02D0422B49D091E04B4BF1
:101014001B68BA795200032101FA02F2D243114645
:10102400464A0B401360454B1B687979BA795200E4
:1010340001FA02F21146414A0B4313603F4B5B68CD
:10104400BA79012101FA02F2D24311463B4A0B401C
:1010540053603A4B5B683A7902F00101BA7901FABC
:1010640002F21146354A0B435360344BDB68BA79BC
:101074005200032101FA02F2D24311462F4A0B40D7
:10108400D3602E4BDB683A79521002F00301BA792F
:10109400520001FA02F21146284A0B43D36048E099
:1010A400274B1B68BA795200032101FA02F2D2439A
:1010B4001146234A0B401360214B1B687979BA7996
:1010C400520001FA02F211461D4A0B4313601C4BF5
:1010D4005B68BA79012101FA02F2D2431146184A37
:1010E4000B405360164B5B683A7902F00101BA7900
:1010F40001FA02F21146124A0B435360104BDB68AB
:10110400BA795200032101FA02F2D24311460C4A81
:101114000B40D3600A4BDB683A79521002F00301AA
:10112400BA79520001FA02F21146054A0B43D36020
:1011340000BF00BF0837BD4690BC704700000240A6
:101144000004024080B485B000AF0346FB710B4637
:10115400BB7113467B71FB79412B02D0422B2DD0FE
:1011640059E0324B1B68BA795200032101FA02F2AA
:101174001A40BB795B0022FA03F3012B1BD17B7964
:10118400002B0AD0294B5B69BA79012101FA02F2DA
:101194001146264A0B4353610AE0244B5B69BA7932
:1011A400012101FA02F2D2431146204A0B40536155
:1011B4000023FB7332E00123FB732FE01C4B1B68FD
:1011C400BA795200032101FA02F21A40BB795B009A
:1011D40022FA03F3012B1BD17B79002B0AD0144B89
:1011E4005B69BA79012101FA02F21146104A0B43F4
:1011F40053610AE00E4B5B69BA79012101FA02F2EC
:10120400D24311460A4A0B4053610023FB7305E0A5
:101214000123FB7302E00123FB7300BFFB7B184631
:101224001437BD465DF8047B704700BF00000240E0
:101234000004024070B50D4D0D4C641BA410002633
:10124400A64209D10B4D0C4C00F018F8641BA410F5
:101254000026A64205D170BD55F8043B98470136D7
:10126400EEE755F8043B98470136F2E79812000878
:1012740098120008981200089C120008F8B500BFE4
:10128400F8BC08BC9E467047F8B500BFF8BC08BC63
:041294009E467047BB
:04129800B901000890
:04129C0095010008B0
:040000050800033DAF
:00000001FF
